{
    "_format": "hh-sol-artifact-1",
    "contractName": "MyAuction",
    "sourceName": "contracts/MyAuction.sol",
    "abi": [
        {
            "inputs": [
                {
                    "internalType": "uint256",
                    "name": "bidTime",
                    "type": "uint256"
                },
                {
                    "internalType": "uint256",
                    "name": "candleTime",
                    "type": "uint256"
                }
            ],
            "stateMutability": "nonpayable",
            "type": "constructor"
        },
        {
            "anonymous": false,
            "inputs": [
                {
                    "indexed": false,
                    "internalType": "address",
                    "name": "winner",
                    "type": "address"
                },
                {
                    "indexed": false,
                    "internalType": "uint256",
                    "name": "topBid",
                    "type": "uint256"
                }
            ],
            "name": "AuctionComplete",
            "type": "event"
        },
        {
            "anonymous": false,
            "inputs": [
                {
                    "indexed": false,
                    "internalType": "address",
                    "name": "bidder",
                    "type": "address"
                },
                {
                    "indexed": false,
                    "internalType": "uint256",
                    "name": "amount",
                    "type": "uint256"
                }
            ],
            "name": "NewTopBid",
            "type": "event"
        },
        {
            "inputs": [],
            "name": "auctionDeadline",
            "outputs": [
                {
                    "internalType": "uint256",
                    "name": "",
                    "type": "uint256"
                }
            ],
            "stateMutability": "view",
            "type": "function"
        },
        {
            "inputs": [],
            "name": "auctionFinished",
            "outputs": [
                {
                    "internalType": "bool",
                    "name": "",
                    "type": "bool"
                }
            ],
            "stateMutability": "view",
            "type": "function"
        },
        {
            "inputs": [],
            "name": "candleDeadline",
            "outputs": [
                {
                    "internalType": "uint256",
                    "name": "",
                    "type": "uint256"
                }
            ],
            "stateMutability": "view",
            "type": "function"
        },
        {
            "inputs": [],
            "name": "contractOwner",
            "outputs": [
                {
                    "internalType": "address",
                    "name": "",
                    "type": "address"
                }
            ],
            "stateMutability": "view",
            "type": "function"
        },
        {
            "inputs": [],
            "name": "finishAuction",
            "outputs": [],
            "stateMutability": "nonpayable",
            "type": "function"
        },
        {
            "inputs": [],
            "name": "getMyRefund",
            "outputs": [],
            "stateMutability": "nonpayable",
            "type": "function"
        },
        {
            "inputs": [],
            "name": "isCandleOut",
            "outputs": [
                {
                    "internalType": "bool",
                    "name": "",
                    "type": "bool"
                }
            ],
            "stateMutability": "view",
            "type": "function"
        },
        {
            "inputs": [
                {
                    "internalType": "address",
                    "name": "",
                    "type": "address"
                }
            ],
            "name": "pendingReturns",
            "outputs": [
                {
                    "internalType": "uint256",
                    "name": "",
                    "type": "uint256"
                }
            ],
            "stateMutability": "view",
            "type": "function"
        },
        {
            "inputs": [],
            "name": "placeBid",
            "outputs": [],
            "stateMutability": "payable",
            "type": "function"
        },
        {
            "inputs": [],
            "name": "topBid",
            "outputs": [
                {
                    "internalType": "uint256",
                    "name": "",
                    "type": "uint256"
                }
            ],
            "stateMutability": "view",
            "type": "function"
        },
        {
            "inputs": [],
            "name": "topBidder",
            "outputs": [
                {
                    "internalType": "address",
                    "name": "",
                    "type": "address"
                }
            ],
            "stateMutability": "view",
            "type": "function"
        }
    ],
    "bytecode": "0x60806040523480156200001157600080fd5b5060405162000e5c38038062000e5c8339818101604052810190620000379190620000e8565b33600460016101000a81548173ffffffffffffffffffffffffffffffffffffffff021916908373ffffffffffffffffffffffffffffffffffffffff16021790555081426200008691906200015e565b60028190555080426200009a91906200015e565b600381905550505062000199565b600080fd5b6000819050919050565b620000c281620000ad565b8114620000ce57600080fd5b50565b600081519050620000e281620000b7565b92915050565b60008060408385031215620001025762000101620000a8565b5b60006200011285828601620000d1565b92505060206200012585828601620000d1565b9150509250929050565b7f4e487b7100000000000000000000000000000000000000000000000000000000600052601160045260246000fd5b60006200016b82620000ad565b91506200017883620000ad565b92508282019050808211156200019357620001926200012f565b5b92915050565b610cb380620001a96000396000f3fe60806040526004361061009c5760003560e01c8063636bf73011610064578063636bf73014610162578063ae91cd231461018d578063c9fddcd1146101b8578063ce606ee0146101e3578063da2571e61461020e578063ecfc7ecc146102395761009c565b806301333f06146100a157806326b387bb146100cc5780632965397e14610109578063430ca46f146101345780635546e1ab1461014b575b600080fd5b3480156100ad57600080fd5b506100b6610243565b6040516100c39190610809565b60405180910390f35b3480156100d857600080fd5b506100f360048036038101906100ee9190610855565b610267565b604051610100919061089b565b60405180910390f35b34801561011557600080fd5b5061011e61027f565b60405161012b919061089b565b60405180910390f35b34801561014057600080fd5b50610149610285565b005b34801561015757600080fd5b5061016061048d565b005b34801561016e57600080fd5b506101776105a3565b604051610184919061089b565b60405180910390f35b34801561019957600080fd5b506101a26105a9565b6040516101af919061089b565b60405180910390f35b3480156101c457600080fd5b506101cd6105af565b6040516101da91906108d1565b60405180910390f35b3480156101ef57600080fd5b506101f86105c2565b6040516102059190610809565b60405180910390f35b34801561021a57600080fd5b506102236105e8565b60405161023091906108d1565b60405180910390f35b6102416105f5565b005b60008054906101000a900473ffffffffffffffffffffffffffffffffffffffff1681565b60056020528060005260406000206000915090505481565b60035481565b600460019054906101000a900473ffffffffffffffffffffffffffffffffffffffff1673ffffffffffffffffffffffffffffffffffffffff163373ffffffffffffffffffffffffffffffffffffffff1614610315576040517f08c379a000000000000000000000000000000000000000000000000000000000815260040161030c90610949565b60405180910390fd5b60025442101561035a576040517f08c379a0000000000000000000000000000000000000000000000000000000008152600401610351906109b5565b60405180910390fd5b600460009054906101000a900460ff16156103aa576040517f08c379a00000000000000000000000000000000000000000000000000000000081526004016103a190610a21565b60405180910390fd5b6001600460006101000a81548160ff0219169083151502179055507f090e5bfb062255c0961c85c80c3db4215b52d2c0f61e013253e3dc5c448d25a460008054906101000a900473ffffffffffffffffffffffffffffffffffffffff16600154604051610418929190610a41565b60405180910390a1600460019054906101000a900473ffffffffffffffffffffffffffffffffffffffff1673ffffffffffffffffffffffffffffffffffffffff166108fc6001549081150290604051600060405180830381858888f1935050505015801561048a573d6000803e3d6000fd5b50565b6000600560003373ffffffffffffffffffffffffffffffffffffffff1673ffffffffffffffffffffffffffffffffffffffff16815260200190815260200160002054905060008111610514576040517f08c379a000000000000000000000000000000000000000000000000000000000815260040161050b90610ab6565b60405180910390fd5b6000600560003373ffffffffffffffffffffffffffffffffffffffff1673ffffffffffffffffffffffffffffffffffffffff168152602001908152602001600020819055503373ffffffffffffffffffffffffffffffffffffffff166108fc829081150290604051600060405180830381858888f1935050505015801561059f573d6000803e3d6000fd5b5050565b60015481565b60025481565b600460009054906101000a900460ff1681565b600460019054906101000a900473ffffffffffffffffffffffffffffffffffffffff1681565b6000600354421015905090565b60025442111561063a576040517f08c379a000000000000000000000000000000000000000000000000000000000815260040161063190610b22565b60405180910390fd5b600154341161067e576040517f08c379a000000000000000000000000000000000000000000000000000000000815260040161067590610b8e565b60405180910390fd5b60035442106106c2576040517f08c379a00000000000000000000000000000000000000000000000000000000081526004016106b990610bfa565b60405180910390fd5b60006001541461074657600154600560008060009054906101000a900473ffffffffffffffffffffffffffffffffffffffff1673ffffffffffffffffffffffffffffffffffffffff1673ffffffffffffffffffffffffffffffffffffffff168152602001908152602001600020600082825461073e9190610c49565b925050819055505b336000806101000a81548173ffffffffffffffffffffffffffffffffffffffff021916908373ffffffffffffffffffffffffffffffffffffffff160217905550346001819055507f1c11e11b6ba23166c1d895fcbb2933eb498d77822e35178fd2bd77a79027f99233346040516107be929190610a41565b60405180910390a1565b600073ffffffffffffffffffffffffffffffffffffffff82169050919050565b60006107f3826107c8565b9050919050565b610803816107e8565b82525050565b600060208201905061081e60008301846107fa565b92915050565b600080fd5b610832816107e8565b811461083d57600080fd5b50565b60008135905061084f81610829565b92915050565b60006020828403121561086b5761086a610824565b5b600061087984828501610840565b91505092915050565b6000819050919050565b61089581610882565b82525050565b60006020820190506108b0600083018461088c565b92915050565b60008115159050919050565b6108cb816108b6565b82525050565b60006020820190506108e660008301846108c2565b92915050565b600082825260208201905092915050565b7f4f6e6c79206f776e65722063616e2063616c6c20746869730000000000000000600082015250565b60006109336018836108ec565b915061093e826108fd565b602082019050919050565b6000602082019050818103600083015261096281610926565b9050919050565b7f41756374696f6e207374696c6c20676f696e672e000000000000000000000000600082015250565b600061099f6014836108ec565b91506109aa82610969565b602082019050919050565b600060208201905081810360008301526109ce81610992565b9050919050565b7f41756374696f6e20616c72656164792066696e69736865642e00000000000000600082015250565b6000610a0b6019836108ec565b9150610a16826109d5565b602082019050919050565b60006020820190508181036000830152610a3a816109fe565b9050919050565b6000604082019050610a5660008301856107fa565b610a63602083018461088c565b9392505050565b7f4e6f2066756e647320746f2077697468647261772e0000000000000000000000600082015250565b6000610aa06015836108ec565b9150610aab82610a6a565b602082019050919050565b60006020820190508181036000830152610acf81610a93565b9050919050565b7f41756374696f6e206f7665722e00000000000000000000000000000000000000600082015250565b6000610b0c600d836108ec565b9150610b1782610ad6565b602082019050919050565b60006020820190508181036000830152610b3b81610aff565b9050919050565b7f426964206e6f74206869676820656e6f7567682e000000000000000000000000600082015250565b6000610b786014836108ec565b9150610b8382610b42565b602082019050919050565b60006020820190508181036000830152610ba781610b6b565b9050919050565b7f43616e646c65206f75742c206269647320636c6f7365642e0000000000000000600082015250565b6000610be46018836108ec565b9150610bef82610bae565b602082019050919050565b60006020820190508181036000830152610c1381610bd7565b9050919050565b7f4e487b7100000000000000000000000000000000000000000000000000000000600052601160045260246000fd5b6000610c5482610882565b9150610c5f83610882565b9250828201905080821115610c7757610c76610c1a565b5b9291505056fea264697066735822122017afe5b5b89a4cec103bd503350bccd7cf2df1c57a7b5bc586459fbedc68606864736f6c63430008180033",
    "linkReferences": {},
    "deployedLinkReferences": {}
}